{
  "_format": "hh-sol-artifact-1",
  "contractName": "ProductNFT",
  "sourceName": "contracts/ProductNFT.sol",
  "abi": [
    {
      "inputs": [],
      "stateMutability": "nonpayable",
      "type": "constructor"
    },
    {
      "anonymous": false,
      "inputs": [
        {
          "indexed": true,
          "internalType": "address",
          "name": "owner",
          "type": "address"
        },
        {
          "indexed": true,
          "internalType": "address",
          "name": "approved",
          "type": "address"
        },
        {
          "indexed": true,
          "internalType": "uint256",
          "name": "tokenId",
          "type": "uint256"
        }
      ],
      "name": "Approval",
      "type": "event"
    },
    {
      "anonymous": false,
      "inputs": [
        {
          "indexed": true,
          "internalType": "address",
          "name": "owner",
          "type": "address"
        },
        {
          "indexed": true,
          "internalType": "address",
          "name": "operator",
          "type": "address"
        },
        {
          "indexed": false,
          "internalType": "bool",
          "name": "approved",
          "type": "bool"
        }
      ],
      "name": "ApprovalForAll",
      "type": "event"
    },
    {
      "anonymous": false,
      "inputs": [
        {
          "indexed": false,
          "internalType": "address",
          "name": "sender",
          "type": "address"
        },
        {
          "indexed": false,
          "internalType": "uint256",
          "name": "tokenId",
          "type": "uint256"
        }
      ],
      "name": "NewEpicNFTMinted",
      "type": "event"
    },
    {
      "anonymous": false,
      "inputs": [
        {
          "indexed": true,
          "internalType": "address",
          "name": "from",
          "type": "address"
        },
        {
          "indexed": true,
          "internalType": "address",
          "name": "to",
          "type": "address"
        },
        {
          "indexed": true,
          "internalType": "uint256",
          "name": "tokenId",
          "type": "uint256"
        }
      ],
      "name": "Transfer",
      "type": "event"
    },
    {
      "inputs": [
        {
          "internalType": "address",
          "name": "to",
          "type": "address"
        },
        {
          "internalType": "uint256",
          "name": "tokenId",
          "type": "uint256"
        }
      ],
      "name": "approve",
      "outputs": [],
      "stateMutability": "nonpayable",
      "type": "function"
    },
    {
      "inputs": [
        {
          "internalType": "address",
          "name": "owner",
          "type": "address"
        }
      ],
      "name": "balanceOf",
      "outputs": [
        {
          "internalType": "uint256",
          "name": "",
          "type": "uint256"
        }
      ],
      "stateMutability": "view",
      "type": "function"
    },
    {
      "inputs": [
        {
          "internalType": "string",
          "name": "id",
          "type": "string"
        },
        {
          "internalType": "string",
          "name": "img",
          "type": "string"
        },
        {
          "internalType": "uint256",
          "name": "day",
          "type": "uint256"
        },
        {
          "internalType": "uint256",
          "name": "price",
          "type": "uint256"
        }
      ],
      "name": "buy",
      "outputs": [],
      "stateMutability": "payable",
      "type": "function"
    },
    {
      "inputs": [
        {
          "internalType": "uint256",
          "name": "tokenId",
          "type": "uint256"
        }
      ],
      "name": "getApproved",
      "outputs": [
        {
          "internalType": "address",
          "name": "",
          "type": "address"
        }
      ],
      "stateMutability": "view",
      "type": "function"
    },
    {
      "inputs": [
        {
          "internalType": "address",
          "name": "owner",
          "type": "address"
        },
        {
          "internalType": "address",
          "name": "operator",
          "type": "address"
        }
      ],
      "name": "isApprovedForAll",
      "outputs": [
        {
          "internalType": "bool",
          "name": "",
          "type": "bool"
        }
      ],
      "stateMutability": "view",
      "type": "function"
    },
    {
      "inputs": [],
      "name": "name",
      "outputs": [
        {
          "internalType": "string",
          "name": "",
          "type": "string"
        }
      ],
      "stateMutability": "view",
      "type": "function"
    },
    {
      "inputs": [
        {
          "internalType": "uint256",
          "name": "tokenId",
          "type": "uint256"
        }
      ],
      "name": "ownerOf",
      "outputs": [
        {
          "internalType": "address",
          "name": "",
          "type": "address"
        }
      ],
      "stateMutability": "view",
      "type": "function"
    },
    {
      "inputs": [
        {
          "internalType": "address",
          "name": "from",
          "type": "address"
        },
        {
          "internalType": "address",
          "name": "to",
          "type": "address"
        },
        {
          "internalType": "uint256",
          "name": "tokenId",
          "type": "uint256"
        }
      ],
      "name": "safeTransferFrom",
      "outputs": [],
      "stateMutability": "nonpayable",
      "type": "function"
    },
    {
      "inputs": [
        {
          "internalType": "address",
          "name": "from",
          "type": "address"
        },
        {
          "internalType": "address",
          "name": "to",
          "type": "address"
        },
        {
          "internalType": "uint256",
          "name": "tokenId",
          "type": "uint256"
        },
        {
          "internalType": "bytes",
          "name": "_data",
          "type": "bytes"
        }
      ],
      "name": "safeTransferFrom",
      "outputs": [],
      "stateMutability": "nonpayable",
      "type": "function"
    },
    {
      "inputs": [
        {
          "internalType": "address",
          "name": "operator",
          "type": "address"
        },
        {
          "internalType": "bool",
          "name": "approved",
          "type": "bool"
        }
      ],
      "name": "setApprovalForAll",
      "outputs": [],
      "stateMutability": "nonpayable",
      "type": "function"
    },
    {
      "inputs": [
        {
          "internalType": "bytes4",
          "name": "interfaceId",
          "type": "bytes4"
        }
      ],
      "name": "supportsInterface",
      "outputs": [
        {
          "internalType": "bool",
          "name": "",
          "type": "bool"
        }
      ],
      "stateMutability": "view",
      "type": "function"
    },
    {
      "inputs": [],
      "name": "symbol",
      "outputs": [
        {
          "internalType": "string",
          "name": "",
          "type": "string"
        }
      ],
      "stateMutability": "view",
      "type": "function"
    },
    {
      "inputs": [
        {
          "internalType": "uint256",
          "name": "tokenId",
          "type": "uint256"
        }
      ],
      "name": "tokenURI",
      "outputs": [
        {
          "internalType": "string",
          "name": "",
          "type": "string"
        }
      ],
      "stateMutability": "view",
      "type": "function"
    },
    {
      "inputs": [
        {
          "internalType": "address",
          "name": "from",
          "type": "address"
        },
        {
          "internalType": "address",
          "name": "to",
          "type": "address"
        },
        {
          "internalType": "uint256",
          "name": "tokenId",
          "type": "uint256"
        }
      ],
      "name": "transferFrom",
      "outputs": [],
      "stateMutability": "nonpayable",
      "type": "function"
    }
  ],
  "bytecode": "0x60806040523480156200001157600080fd5b506040518060400160405280600a81526020017f50726f647563744e4654000000000000000000000000000000000000000000008152506040518060400160405280600481526020017f50524f4400000000000000000000000000000000000000000000000000000000815250816000908051906020019062000096929190620000b8565b508060019080519060200190620000af929190620000b8565b505050620001cd565b828054620000c69062000168565b90600052602060002090601f016020900481019282620000ea576000855562000136565b82601f106200010557805160ff191683800117855562000136565b8280016001018555821562000136579182015b828111156200013557825182559160200191906001019062000118565b5b50905062000145919062000149565b5090565b5b80821115620001645760008160009055506001016200014a565b5090565b600060028204905060018216806200018157607f821691505b602082108114156200019857620001976200019e565b5b50919050565b7f4e487b7100000000000000000000000000000000000000000000000000000000600052602260045260246000fd5b6136b980620001dd6000396000f3fe6080604052600436106100dd5760003560e01c80636352211e1161007f578063a22cb46511610059578063a22cb465146102c3578063b88d4fde146102ec578063c87b56dd14610315578063e985e9c514610352576100dd565b80636352211e1461021e57806370a082311461025b57806395d89b4114610298576100dd565b8063095ea7b3116100bb578063095ea7b31461018757806323b872dd146101b05780633ae67d14146101d957806342842e0e146101f5576100dd565b806301ffc9a7146100e257806306fdde031461011f578063081812fc1461014a575b600080fd5b3480156100ee57600080fd5b50610109600480360381019061010491906121cc565b61038f565b604051610116919061288f565b60405180910390f35b34801561012b57600080fd5b50610134610471565b60405161014191906128aa565b60405180910390f35b34801561015657600080fd5b50610171600480360381019061016c91906122b1565b610503565b60405161017e91906127ff565b60405180910390f35b34801561019357600080fd5b506101ae60048036038101906101a99190612190565b610588565b005b3480156101bc57600080fd5b506101d760048036038101906101d2919061208a565b6106a0565b005b6101f360048036038101906101ee919061221e565b610700565b005b34801561020157600080fd5b5061021c6004803603810190610217919061208a565b6108f1565b005b34801561022a57600080fd5b50610245600480360381019061024091906122b1565b610911565b60405161025291906127ff565b60405180910390f35b34801561026757600080fd5b50610282600480360381019061027d9190612025565b6109c3565b60405161028f9190612b0a565b60405180910390f35b3480156102a457600080fd5b506102ad610a7b565b6040516102ba91906128aa565b60405180910390f35b3480156102cf57600080fd5b506102ea60048036038101906102e59190612154565b610b0d565b005b3480156102f857600080fd5b50610313600480360381019061030e91906120d9565b610b23565b005b34801561032157600080fd5b5061033c600480360381019061033791906122b1565b610b85565b60405161034991906128aa565b60405180910390f35b34801561035e57600080fd5b506103796004803603810190610374919061204e565b610cd7565b604051610386919061288f565b60405180910390f35b60007f80ac58cd000000000000000000000000000000000000000000000000000000007bffffffffffffffffffffffffffffffffffffffffffffffffffffffff1916827bffffffffffffffffffffffffffffffffffffffffffffffffffffffff1916148061045a57507f5b5e139f000000000000000000000000000000000000000000000000000000007bffffffffffffffffffffffffffffffffffffffffffffffffffffffff1916827bffffffffffffffffffffffffffffffffffffffffffffffffffffffff1916145b8061046a575061046982610d6b565b5b9050919050565b60606000805461048090612dba565b80601f01602080910402602001604051908101604052809291908181526020018280546104ac90612dba565b80156104f95780601f106104ce576101008083540402835291602001916104f9565b820191906000526020600020905b8154815290600101906020018083116104dc57829003601f168201915b5050505050905090565b600061050e82610dd5565b61054d576040517f08c379a000000000000000000000000000000000000000000000000000000000815260040161054490612a8a565b60405180910390fd5b6004600083815260200190815260200160002060009054906101000a900473ffffffffffffffffffffffffffffffffffffffff169050919050565b600061059382610911565b90508073ffffffffffffffffffffffffffffffffffffffff168373ffffffffffffffffffffffffffffffffffffffff161415610604576040517f08c379a00000000000000000000000000000000000000000000000000000000081526004016105fb90612aca565b60405180910390fd5b8073ffffffffffffffffffffffffffffffffffffffff16610623610e41565b73ffffffffffffffffffffffffffffffffffffffff16148061065257506106518161064c610e41565b610cd7565b5b610691576040517f08c379a0000000000000000000000000000000000000000000000000000000008152600401610688906129ca565b60405180910390fd5b61069b8383610e49565b505050565b6106b16106ab610e41565b82610f02565b6106f0576040517f08c379a00000000000000000000000000000000000000000000000000000000081526004016106e790612aea565b60405180910390fd5b6106fb838383610fe0565b505050565b600061070c6007611247565b905084600860003373ffffffffffffffffffffffffffffffffffffffff1673ffffffffffffffffffffffffffffffffffffffff1681526020019081526020016000209080519060200190610761929190611e49565b5081341461076e57600080fd5b60006040518060400160405280600881526020017f57617272616e74790000000000000000000000000000000000000000000000008152509050600062015180856107b99190612c76565b90506000429050600082826107ce9190612bef565b9050600061081c856107df88611255565b8b8d6107ea88611255565b6107f388611255565b60405160200161080896959493929190612738565b604051602081830303815290604052611402565b905060008160405160200161083191906127dd565b604051602081830303815290604052905061086a816040516020016108569190612716565b6040516020818303038152906040526115c0565b6108743388611659565b61087e8782611677565b61088860076116eb565b6108ab60405180606001604052806025815260200161361f602591398833611701565b7febb98688741ffa4c7589bf325de30cf7becb63de567842e1ccdb6cb949fdc82c33886040516108dc929190612866565b60405180910390a15050505050505050505050565b61090c83838360405180602001604052806000815250610b23565b505050565b6000806002600084815260200190815260200160002060009054906101000a900473ffffffffffffffffffffffffffffffffffffffff169050600073ffffffffffffffffffffffffffffffffffffffff168173ffffffffffffffffffffffffffffffffffffffff1614156109ba576040517f08c379a00000000000000000000000000000000000000000000000000000000081526004016109b190612a0a565b60405180910390fd5b80915050919050565b60008073ffffffffffffffffffffffffffffffffffffffff168273ffffffffffffffffffffffffffffffffffffffff161415610a34576040517f08c379a0000000000000000000000000000000000000000000000000000000008152600401610a2b906129ea565b60405180910390fd5b600360008373ffffffffffffffffffffffffffffffffffffffff1673ffffffffffffffffffffffffffffffffffffffff168152602001908152602001600020549050919050565b606060018054610a8a90612dba565b80601f0160208091040260200160405190810160405280929190818152602001828054610ab690612dba565b8015610b035780601f10610ad857610100808354040283529160200191610b03565b820191906000526020600020905b815481529060010190602001808311610ae657829003601f168201915b5050505050905090565b610b1f610b18610e41565b83836117a0565b5050565b610b34610b2e610e41565b83610f02565b610b73576040517f08c379a0000000000000000000000000000000000000000000000000000000008152600401610b6a90612aea565b60405180910390fd5b610b7f8484848461190d565b50505050565b6060610b9082610dd5565b610bcf576040517f08c379a0000000000000000000000000000000000000000000000000000000008152600401610bc690612a6a565b60405180910390fd5b6000600660008481526020019081526020016000208054610bef90612dba565b80601f0160208091040260200160405190810160405280929190818152602001828054610c1b90612dba565b8015610c685780601f10610c3d57610100808354040283529160200191610c68565b820191906000526020600020905b815481529060010190602001808311610c4b57829003601f168201915b505050505090506000610c79611969565b9050600081511415610c8f578192505050610cd2565b600082511115610cc4578082604051602001610cac9291906126f2565b60405160208183030381529060405292505050610cd2565b610ccd84611980565b925050505b919050565b6000600560008473ffffffffffffffffffffffffffffffffffffffff1673ffffffffffffffffffffffffffffffffffffffff16815260200190815260200160002060008373ffffffffffffffffffffffffffffffffffffffff1673ffffffffffffffffffffffffffffffffffffffff16815260200190815260200160002060009054906101000a900460ff16905092915050565b60007f01ffc9a7000000000000000000000000000000000000000000000000000000007bffffffffffffffffffffffffffffffffffffffffffffffffffffffff1916827bffffffffffffffffffffffffffffffffffffffffffffffffffffffff1916149050919050565b60008073ffffffffffffffffffffffffffffffffffffffff166002600084815260200190815260200160002060009054906101000a900473ffffffffffffffffffffffffffffffffffffffff1673ffffffffffffffffffffffffffffffffffffffff1614159050919050565b600033905090565b816004600083815260200190815260200160002060006101000a81548173ffffffffffffffffffffffffffffffffffffffff021916908373ffffffffffffffffffffffffffffffffffffffff160217905550808273ffffffffffffffffffffffffffffffffffffffff16610ebc83610911565b73ffffffffffffffffffffffffffffffffffffffff167f8c5be1e5ebec7d5bd14f71427d1e84f3dd0314c0f7b2291e5b200ac8c7c3b92560405160405180910390a45050565b6000610f0d82610dd5565b610f4c576040517f08c379a0000000000000000000000000000000000000000000000000000000008152600401610f43906129aa565b60405180910390fd5b6000610f5783610911565b90508073ffffffffffffffffffffffffffffffffffffffff168473ffffffffffffffffffffffffffffffffffffffff161480610f995750610f988185610cd7565b5b80610fd757508373ffffffffffffffffffffffffffffffffffffffff16610fbf84610503565b73ffffffffffffffffffffffffffffffffffffffff16145b91505092915050565b8273ffffffffffffffffffffffffffffffffffffffff1661100082610911565b73ffffffffffffffffffffffffffffffffffffffff1614611056576040517f08c379a000000000000000000000000000000000000000000000000000000000815260040161104d9061292a565b60405180910390fd5b600073ffffffffffffffffffffffffffffffffffffffff168273ffffffffffffffffffffffffffffffffffffffff1614156110c6576040517f08c379a00000000000000000000000000000000000000000000000000000000081526004016110bd9061296a565b60405180910390fd5b6110d1838383611a27565b6110dc600082610e49565b6001600360008573ffffffffffffffffffffffffffffffffffffffff1673ffffffffffffffffffffffffffffffffffffffff168152602001908152602001600020600082825461112c9190612cd0565b925050819055506001600360008473ffffffffffffffffffffffffffffffffffffffff1673ffffffffffffffffffffffffffffffffffffffff16815260200190815260200160002060008282546111839190612bef565b92505081905550816002600083815260200190815260200160002060006101000a81548173ffffffffffffffffffffffffffffffffffffffff021916908373ffffffffffffffffffffffffffffffffffffffff160217905550808273ffffffffffffffffffffffffffffffffffffffff168473ffffffffffffffffffffffffffffffffffffffff167fddf252ad1be2c89b69c2b068fc378daa952ba7f163c4a11628f55a4df523b3ef60405160405180910390a4611242838383611a2c565b505050565b600081600001549050919050565b6060600082141561129d576040518060400160405280600181526020017f300000000000000000000000000000000000000000000000000000000000000081525090506113fd565b600082905060005b600082146112cf5780806112b890612e1d565b915050600a826112c89190612c45565b91506112a5565b60008167ffffffffffffffff811115611311577f4e487b7100000000000000000000000000000000000000000000000000000000600052604160045260246000fd5b6040519080825280601f01601f1916602001820160405280156113435781602001600182028036833780820191505090505b5090505b600085146113f65760018261135c9190612cd0565b9150600a8561136b9190612e66565b60306113779190612bef565b60f81b8183815181106113b3577f4e487b7100000000000000000000000000000000000000000000000000000000600052603260045260246000fd5b60200101907effffffffffffffffffffffffffffffffffffffffffffffffffffffffffffff1916908160001a905350600a856113ef9190612c45565b9450611347565b8093505050505b919050565b6060600082519050600081141561142b57604051806020016040528060008152509150506115bb565b6000600360028361143c9190612bef565b6114469190612c45565b60046114529190612c76565b905060006020826114639190612bef565b67ffffffffffffffff8111156114a2577f4e487b7100000000000000000000000000000000000000000000000000000000600052604160045260246000fd5b6040519080825280601f01601f1916602001820160405280156114d45781602001600182028036833780820191505090505b5090506000604051806060016040528060408152602001613644604091399050600181016020830160005b868110156115785760038101905062ffffff818a015116603f8160121c168401518060081b905060ff603f83600c1c1686015116810190508060081b905060ff603f8360061c1686015116810190508060081b905060ff603f831686015116810190508060e01b905080845260048401935050506114ff565b50600386066001811461159257600281146115a2576115ad565b613d3d60f01b60028303526115ad565b603d60f81b60018303525b508484525050819450505050505b919050565b611656816040516024016115d491906128aa565b6040516020818303038152906040527f41304fac000000000000000000000000000000000000000000000000000000007bffffffffffffffffffffffffffffffffffffffffffffffffffffffff19166020820180517bffffffffffffffffffffffffffffffffffffffffffffffffffffffff8381831617835250505050611a31565b50565b611673828260405180602001604052806000815250611a5a565b5050565b61168082610dd5565b6116bf576040517f08c379a00000000000000000000000000000000000000000000000000000000081526004016116b690612a2a565b60405180910390fd5b806006600084815260200190815260200160002090805190602001906116e6929190611e49565b505050565b6001816000016000828254019250508190555050565b61179b838383604051602401611719939291906128cc565b6040516020818303038152906040527fe3849f79000000000000000000000000000000000000000000000000000000007bffffffffffffffffffffffffffffffffffffffffffffffffffffffff19166020820180517bffffffffffffffffffffffffffffffffffffffffffffffffffffffff8381831617835250505050611a31565b505050565b8173ffffffffffffffffffffffffffffffffffffffff168373ffffffffffffffffffffffffffffffffffffffff16141561180f576040517f08c379a00000000000000000000000000000000000000000000000000000000081526004016118069061298a565b60405180910390fd5b80600560008573ffffffffffffffffffffffffffffffffffffffff1673ffffffffffffffffffffffffffffffffffffffff16815260200190815260200160002060008473ffffffffffffffffffffffffffffffffffffffff1673ffffffffffffffffffffffffffffffffffffffff16815260200190815260200160002060006101000a81548160ff0219169083151502179055508173ffffffffffffffffffffffffffffffffffffffff168373ffffffffffffffffffffffffffffffffffffffff167f17307eab39ab6107e8899845ad3d59bd9653f200f220920489ca2b5937696c3183604051611900919061288f565b60405180910390a3505050565b611918848484610fe0565b61192484848484611ab5565b611963576040517f08c379a000000000000000000000000000000000000000000000000000000000815260040161195a9061290a565b60405180910390fd5b50505050565b606060405180602001604052806000815250905090565b606061198b82610dd5565b6119ca576040517f08c379a00000000000000000000000000000000000000000000000000000000081526004016119c190612aaa565b60405180910390fd5b60006119d4611969565b905060008151116119f45760405180602001604052806000815250611a1f565b806119fe84611255565b604051602001611a0f9291906126f2565b6040516020818303038152906040525b915050919050565b505050565b505050565b60008151905060006a636f6e736f6c652e6c6f679050602083016000808483855afa5050505050565b611a648383611c4c565b611a716000848484611ab5565b611ab0576040517f08c379a0000000000000000000000000000000000000000000000000000000008152600401611aa79061290a565b60405180910390fd5b505050565b6000611ad68473ffffffffffffffffffffffffffffffffffffffff16611e26565b15611c3f578373ffffffffffffffffffffffffffffffffffffffff1663150b7a02611aff610e41565b8786866040518563ffffffff1660e01b8152600401611b21949392919061281a565b602060405180830381600087803b158015611b3b57600080fd5b505af1925050508015611b6c57506040513d601f19601f82011682018060405250810190611b6991906121f5565b60015b611bef573d8060008114611b9c576040519150601f19603f3d011682016040523d82523d6000602084013e611ba1565b606091505b50600081511415611be7576040517f08c379a0000000000000000000000000000000000000000000000000000000008152600401611bde9061290a565b60405180910390fd5b805181602001fd5b63150b7a0260e01b7bffffffffffffffffffffffffffffffffffffffffffffffffffffffff1916817bffffffffffffffffffffffffffffffffffffffffffffffffffffffff191614915050611c44565b600190505b949350505050565b600073ffffffffffffffffffffffffffffffffffffffff168273ffffffffffffffffffffffffffffffffffffffff161415611cbc576040517f08c379a0000000000000000000000000000000000000000000000000000000008152600401611cb390612a4a565b60405180910390fd5b611cc581610dd5565b15611d05576040517f08c379a0000000000000000000000000000000000000000000000000000000008152600401611cfc9061294a565b60405180910390fd5b611d1160008383611a27565b6001600360008473ffffffffffffffffffffffffffffffffffffffff1673ffffffffffffffffffffffffffffffffffffffff1681526020019081526020016000206000828254611d619190612bef565b92505081905550816002600083815260200190815260200160002060006101000a81548173ffffffffffffffffffffffffffffffffffffffff021916908373ffffffffffffffffffffffffffffffffffffffff160217905550808273ffffffffffffffffffffffffffffffffffffffff16600073ffffffffffffffffffffffffffffffffffffffff167fddf252ad1be2c89b69c2b068fc378daa952ba7f163c4a11628f55a4df523b3ef60405160405180910390a4611e2260008383611a2c565b5050565b6000808273ffffffffffffffffffffffffffffffffffffffff163b119050919050565b828054611e5590612dba565b90600052602060002090601f016020900481019282611e775760008555611ebe565b82601f10611e9057805160ff1916838001178555611ebe565b82800160010185558215611ebe579182015b82811115611ebd578251825591602001919060010190611ea2565b5b509050611ecb9190611ecf565b5090565b5b80821115611ee8576000816000905550600101611ed0565b5090565b6000611eff611efa84612b4a565b612b25565b905082815260208101848484011115611f1757600080fd5b611f22848285612d78565b509392505050565b6000611f3d611f3884612b7b565b612b25565b905082815260208101848484011115611f5557600080fd5b611f60848285612d78565b509392505050565b600081359050611f77816135c2565b92915050565b600081359050611f8c816135d9565b92915050565b600081359050611fa1816135f0565b92915050565b600081519050611fb6816135f0565b92915050565b600082601f830112611fcd57600080fd5b8135611fdd848260208601611eec565b91505092915050565b600082601f830112611ff757600080fd5b8135612007848260208601611f2a565b91505092915050565b60008135905061201f81613607565b92915050565b60006020828403121561203757600080fd5b600061204584828501611f68565b91505092915050565b6000806040838503121561206157600080fd5b600061206f85828601611f68565b925050602061208085828601611f68565b9150509250929050565b60008060006060848603121561209f57600080fd5b60006120ad86828701611f68565b93505060206120be86828701611f68565b92505060406120cf86828701612010565b9150509250925092565b600080600080608085870312156120ef57600080fd5b60006120fd87828801611f68565b945050602061210e87828801611f68565b935050604061211f87828801612010565b925050606085013567ffffffffffffffff81111561213c57600080fd5b61214887828801611fbc565b91505092959194509250565b6000806040838503121561216757600080fd5b600061217585828601611f68565b925050602061218685828601611f7d565b9150509250929050565b600080604083850312156121a357600080fd5b60006121b185828601611f68565b92505060206121c285828601612010565b9150509250929050565b6000602082840312156121de57600080fd5b60006121ec84828501611f92565b91505092915050565b60006020828403121561220757600080fd5b600061221584828501611fa7565b91505092915050565b6000806000806080858703121561223457600080fd5b600085013567ffffffffffffffff81111561224e57600080fd5b61225a87828801611fe6565b945050602085013567ffffffffffffffff81111561227757600080fd5b61228387828801611fe6565b935050604061229487828801612010565b92505060606122a587828801612010565b91505092959194509250565b6000602082840312156122c357600080fd5b60006122d184828501612010565b91505092915050565b6122e381612d04565b82525050565b6122f281612d16565b82525050565b600061230382612bac565b61230d8185612bc2565b935061231d818560208601612d87565b61232681612f53565b840191505092915050565b600061233c82612bb7565b6123468185612bd3565b9350612356818560208601612d87565b61235f81612f53565b840191505092915050565b600061237582612bb7565b61237f8185612be4565b935061238f818560208601612d87565b80840191505092915050565b60006123a8600b83612be4565b91506123b382612f64565b600b82019050919050565b60006123cb602583612be4565b91506123d682612f8d565b602582019050919050565b60006123ee603283612bd3565b91506123f982612fdc565b604082019050919050565b6000612411602583612bd3565b915061241c8261302b565b604082019050919050565b6000612434601c83612bd3565b915061243f8261307a565b602082019050919050565b6000612457602483612bd3565b9150612462826130a3565b604082019050919050565b600061247a601983612bd3565b9150612485826130f2565b602082019050919050565b600061249d602c83612bd3565b91506124a88261311b565b604082019050919050565b60006124c0602b83612be4565b91506124cb8261316a565b602b82019050919050565b60006124e3603883612bd3565b91506124ee826131b9565b604082019050919050565b6000612506602a83612bd3565b915061251182613208565b604082019050919050565b6000612529602983612bd3565b915061253482613257565b604082019050919050565b600061254c602e83612bd3565b9150612557826132a6565b604082019050919050565b600061256f600483612be4565b915061257a826132f5565b600482019050919050565b6000612592602083612bd3565b915061259d8261331e565b602082019050919050565b60006125b5603183612bd3565b91506125c082613347565b604082019050919050565b60006125d8602c83612bd3565b91506125e382613396565b604082019050919050565b60006125fb602583612be4565b9150612606826133e5565b602582019050919050565b600061261e602f83612bd3565b915061262982613434565b604082019050919050565b6000612641600a83612be4565b915061264c82613483565b600a82019050919050565b6000612664602183612bd3565b915061266f826134ac565b604082019050919050565b6000612687601d83612be4565b9150612692826134fb565b601d82019050919050565b60006126aa603183612bd3565b91506126b582613524565b604082019050919050565b60006126cd603183612be4565b91506126d882613573565b603182019050919050565b6126ec81612d6e565b82525050565b60006126fe828561236a565b915061270a828461236a565b91508190509392505050565b6000612721826123be565b915061272d828461236a565b915081905092915050565b600061274382612634565b915061274f828961236a565b915061275a8261239b565b9150612766828861236a565b9150612771826124b3565b915061277d828761236a565b9150612788826126c0565b9150612794828661236a565b915061279f826125ee565b91506127ab828561236a565b91506127b6826125ee565b91506127c2828461236a565b91506127cd82612562565b9150819050979650505050505050565b60006127e88261267a565b91506127f4828461236a565b915081905092915050565b600060208201905061281460008301846122da565b92915050565b600060808201905061282f60008301876122da565b61283c60208301866122da565b61284960408301856126e3565b818103606083015261285b81846122f8565b905095945050505050565b600060408201905061287b60008301856122da565b61288860208301846126e3565b9392505050565b60006020820190506128a460008301846122e9565b92915050565b600060208201905081810360008301526128c48184612331565b905092915050565b600060608201905081810360008301526128e68186612331565b90506128f560208301856126e3565b61290260408301846122da565b949350505050565b60006020820190508181036000830152612923816123e1565b9050919050565b6000602082019050818103600083015261294381612404565b9050919050565b6000602082019050818103600083015261296381612427565b9050919050565b600060208201905081810360008301526129838161244a565b9050919050565b600060208201905081810360008301526129a38161246d565b9050919050565b600060208201905081810360008301526129c381612490565b9050919050565b600060208201905081810360008301526129e3816124d6565b9050919050565b60006020820190508181036000830152612a03816124f9565b9050919050565b60006020820190508181036000830152612a238161251c565b9050919050565b60006020820190508181036000830152612a438161253f565b9050919050565b60006020820190508181036000830152612a6381612585565b9050919050565b60006020820190508181036000830152612a83816125a8565b9050919050565b60006020820190508181036000830152612aa3816125cb565b9050919050565b60006020820190508181036000830152612ac381612611565b9050919050565b60006020820190508181036000830152612ae381612657565b9050919050565b60006020820190508181036000830152612b038161269d565b9050919050565b6000602082019050612b1f60008301846126e3565b92915050565b6000612b2f612b40565b9050612b3b8282612dec565b919050565b6000604051905090565b600067ffffffffffffffff821115612b6557612b64612f24565b5b612b6e82612f53565b9050602081019050919050565b600067ffffffffffffffff821115612b9657612b95612f24565b5b612b9f82612f53565b9050602081019050919050565b600081519050919050565b600081519050919050565b600082825260208201905092915050565b600082825260208201905092915050565b600081905092915050565b6000612bfa82612d6e565b9150612c0583612d6e565b9250827fffffffffffffffffffffffffffffffffffffffffffffffffffffffffffffffff03821115612c3a57612c39612e97565b5b828201905092915050565b6000612c5082612d6e565b9150612c5b83612d6e565b925082612c6b57612c6a612ec6565b5b828204905092915050565b6000612c8182612d6e565b9150612c8c83612d6e565b9250817fffffffffffffffffffffffffffffffffffffffffffffffffffffffffffffffff0483118215151615612cc557612cc4612e97565b5b828202905092915050565b6000612cdb82612d6e565b9150612ce683612d6e565b925082821015612cf957612cf8612e97565b5b828203905092915050565b6000612d0f82612d4e565b9050919050565b60008115159050919050565b60007fffffffff0000000000000000000000000000000000000000000000000000000082169050919050565b600073ffffffffffffffffffffffffffffffffffffffff82169050919050565b6000819050919050565b82818337600083830152505050565b60005b83811015612da5578082015181840152602081019050612d8a565b83811115612db4576000848401525b50505050565b60006002820490506001821680612dd257607f821691505b60208210811415612de657612de5612ef5565b5b50919050565b612df582612f53565b810181811067ffffffffffffffff82111715612e1457612e13612f24565b5b80604052505050565b6000612e2882612d6e565b91507fffffffffffffffffffffffffffffffffffffffffffffffffffffffffffffffff821415612e5b57612e5a612e97565b5b600182019050919050565b6000612e7182612d6e565b9150612e7c83612d6e565b925082612e8c57612e8b612ec6565b5b828206905092915050565b7f4e487b7100000000000000000000000000000000000000000000000000000000600052601160045260246000fd5b7f4e487b7100000000000000000000000000000000000000000000000000000000600052601260045260246000fd5b7f4e487b7100000000000000000000000000000000000000000000000000000000600052602260045260246000fd5b7f4e487b7100000000000000000000000000000000000000000000000000000000600052604160045260246000fd5b6000601f19601f8301169050919050565b7f202d2d204e465420233a20000000000000000000000000000000000000000000600082015250565b7f68747470733a2f2f6e6674707265766965772e30786465762e636f6465732f3f60008201527f636f64653d000000000000000000000000000000000000000000000000000000602082015250565b7f4552433732313a207472616e7366657220746f206e6f6e20455243373231526560008201527f63656976657220696d706c656d656e7465720000000000000000000000000000602082015250565b7f4552433732313a207472616e736665722066726f6d20696e636f72726563742060008201527f6f776e6572000000000000000000000000000000000000000000000000000000602082015250565b7f4552433732313a20746f6b656e20616c7265616479206d696e74656400000000600082015250565b7f4552433732313a207472616e7366657220746f20746865207a65726f2061646460008201527f7265737300000000000000000000000000000000000000000000000000000000602082015250565b7f4552433732313a20617070726f766520746f2063616c6c657200000000000000600082015250565b7f4552433732313a206f70657261746f7220717565727920666f72206e6f6e657860008201527f697374656e7420746f6b656e0000000000000000000000000000000000000000602082015250565b7f222c20226465736372697074696f6e223a202250726f64756374204e4654222c60008201527f2022696d616765223a2022000000000000000000000000000000000000000000602082015250565b7f4552433732313a20617070726f76652063616c6c6572206973206e6f74206f7760008201527f6e6572206e6f7220617070726f76656420666f7220616c6c0000000000000000602082015250565b7f4552433732313a2062616c616e636520717565727920666f7220746865207a6560008201527f726f206164647265737300000000000000000000000000000000000000000000602082015250565b7f4552433732313a206f776e657220717565727920666f72206e6f6e657869737460008201527f656e7420746f6b656e0000000000000000000000000000000000000000000000602082015250565b7f45524337323155524953746f726167653a2055524920736574206f66206e6f6e60008201527f6578697374656e7420746f6b656e000000000000000000000000000000000000602082015250565b7f7d205d7d00000000000000000000000000000000000000000000000000000000600082015250565b7f4552433732313a206d696e7420746f20746865207a65726f2061646472657373600082015250565b7f45524337323155524953746f726167653a2055524920717565727920666f722060008201527f6e6f6e6578697374656e7420746f6b656e000000000000000000000000000000602082015250565b7f4552433732313a20617070726f76656420717565727920666f72206e6f6e657860008201527f697374656e7420746f6b656e0000000000000000000000000000000000000000602082015250565b7f7d2c7b2022646973706c61795f74797065223a202264617465222c202276616c60008201527f7565223a20000000000000000000000000000000000000000000000000000000602082015250565b7f4552433732314d657461646174613a2055524920717565727920666f72206e6f60008201527f6e6578697374656e7420746f6b656e0000000000000000000000000000000000602082015250565b7f7b226e616d65223a202200000000000000000000000000000000000000000000600082015250565b7f4552433732313a20617070726f76616c20746f2063757272656e74206f776e6560008201527f7200000000000000000000000000000000000000000000000000000000000000602082015250565b7f646174613a6170706c69636174696f6e2f6a736f6e3b6261736536342c000000600082015250565b7f4552433732313a207472616e736665722063616c6c6572206973206e6f74206f60008201527f776e6572206e6f7220617070726f766564000000000000000000000000000000602082015250565b7f222c202261747472696275746573223a205b7b202274726169745f747970652260008201527f3a20226964222c202276616c7565223a20000000000000000000000000000000602082015250565b6135cb81612d04565b81146135d657600080fd5b50565b6135e281612d16565b81146135ed57600080fd5b50565b6135f981612d22565b811461360457600080fd5b50565b61361081612d6e565b811461361b57600080fd5b5056fe416e204e465420772f20494420257320686173206265656e206d696e74656420746f2025734142434445464748494a4b4c4d4e4f505152535455565758595a6162636465666768696a6b6c6d6e6f707172737475767778797a303132333435363738392b2fa26469706673582212205818da817867fff24a67240fc8379699ae4e636e7af49cd854a01470ab554b4764736f6c63430008040033",
  "linkReferences": {},
  "deployedLinkReferences": {}
}